{
  "contractName": "erc20",
  "abi": [
    {
      "inputs": [
        {
          "internalType": "address",
          "name": "sender",
          "type": "address"
        },
        {
          "internalType": "address",
          "name": "recipient",
          "type": "address"
        },
        {
          "internalType": "uint256",
          "name": "amount",
          "type": "uint256"
        }
      ],
      "name": "transferFrom",
      "outputs": [],
      "stateMutability": "nonpayable",
      "type": "function"
    },
    {
      "inputs": [
        {
          "internalType": "address",
          "name": "recipient",
          "type": "address"
        },
        {
          "internalType": "uint256",
          "name": "amount",
          "type": "uint256"
        }
      ],
      "name": "transfer",
      "outputs": [],
      "stateMutability": "nonpayable",
      "type": "function"
    }
  ],
  "bytecode": "0x608060405234801561001057600080fd5b5061012c806100206000396000f3fe6080604052348015600f57600080fd5b506004361060325760003560e01c806323b872dd146037578063a9059cbb1460a2575b600080fd5b60a060048036036060811015604b57600080fd5b81019080803573ffffffffffffffffffffffffffffffffffffffff169060200190929190803573ffffffffffffffffffffffffffffffffffffffff1690602001909291908035906020019092919050505060ed565b005b60eb6004803603604081101560b657600080fd5b81019080803573ffffffffffffffffffffffffffffffffffffffff1690602001909291908035906020019092919050505060f2565b005b505050565b505056fea2646970667358221220e6742a49b1dbff429099c70197b8629e70f48c9d66cd2b9e9933b40b1c7788c164736f6c634300060c0033",
  "immutableReferences": {},
  "source": "// contracts/MyNFT.sol\n// SPDX-License-Identifier: MIT\npragma solidity ^0.6.0;\n\nimport \"@openzeppelin/contracts/token/ERC721/ERC721.sol\";\n\ncontract erc20 {\n    function transferFrom(address sender, address recipient, uint256 amount) public {}\n    function transfer(address recipient, uint256 amount) public {}\n}\n\ncontract NFT is ERC721 {\n    address private _owner;\n    erc20 public token;\n    mapping (uint256 => uint256) private _tokenPrice;\n\n    modifier onlyOwner() {\n        require (msg.sender == _owner);\n        _;\n    }\n\n    function transferOwnership(address newOwner) public onlyOwner {\n        _owner = newOwner;\n    }\n\n    constructor(string memory name, string memory symbol, address addr) ERC721(name, symbol) public {\n        _owner = msg.sender;\n        token = erc20(addr);\n    }\n\n    function withdrew(address addr, uint256 amount) public onlyOwner() {\n        token.transfer(addr, amount);\n    }\n\n    function setToken(address addr) public onlyOwner() {\n        token = erc20(addr);\n    }\n\n    function getTokenPrice(uint256 tokenId) public view returns (uint256) {\n        return _tokenPrice[tokenId];\n    }\n\n    function mintUniqueTokenTo(uint256 tokenId, string memory name, string memory img, string memory coupon, string memory remark, uint256 price) public onlyOwner {\n        super._mint(address(this), tokenId);\n        super._setTokenURI(tokenId, string(abi.encodePacked('{\"name\":\"', name, '\",\"img\":\"', img, '\",\"coupon\":\"', coupon, '\",\"remark\":\"', remark, '\"}')));\n        _tokenPrice[tokenId] = price;\n    }\n\n    function mintUniqueTokenTo(uint256 tokenId, string memory tokenURI, uint256 price) public onlyOwner {\n        super._mint(address(this), tokenId);\n        super._setTokenURI(tokenId, tokenURI);\n        _tokenPrice[tokenId] = price;\n    }\n\n    function buyNFT(address to, uint256 tokenId) public {\n        token.transferFrom(to, address(this), getTokenPrice(tokenId));\n        _transfer(address(this), to, tokenId);\n    }\n}\n",
  "sourcePath": "/Users/louislee/git/peter/nft/nft/contracts/NFT.sol",
  "compiler": {
    "name": "solc",
    "version": "0.6.12+commit.27d51765.Emscripten.clang"
  },
  "schemaVersion": "3.3.4",
  "updatedAt": "2021-06-11T10:23:46.961Z",
  "devdoc": {
    "kind": "dev",
    "methods": {},
    "version": 1
  },
  "userdoc": {
    "kind": "user",
    "methods": {},
    "version": 1
  }
}